:100000000C9428000C9445000C9445000C94450079
:100010000C9445000C9445000C9445000C9445004C
:100020000C9445000C9445000C9445000C9445003C
:100030000C9445000C9445000C9445000C9445002C
:100040000C9445000C9445000C9445000C9445001C
:1000500011241FBECFE5D8E0DEBFCDBF10E0A0E683
:10006000B0E0ECECF4E302C005900D92A83CB107BF
:10007000D9F710E0A8ECB0E001C01D92A93DB1078E
:10008000E1F70E94B9190C94641A0C940000EF92E5
:10009000FF920F931F937B018C0120E030E040E042
:1000A0005FE40E94470388238CF0C801B70120E079
:1000B00030E040E05FE40E94BF010E94A7039B0183
:1000C000AC01205030404040504806C0C801B70144
:1000D0000E94A7039B01AC01B901CA011F910F91B6
:1000E000FF90EF900895A0E0B0E0E9E7F0E00C9415
:1000F000C219DC012B01FA019C91923008F439C13C
:10010000EB018881823008F433C1943069F4843083
:1001100009F02FC111969C9111978981981709F4C4
:1001200028C1AEEBB0E025C1843009F421C1823092
:10013000A9F4923009F01DC19A01AD0188E0EA01ED
:100140000990AE01E90109929E018150C1F7E201D7
:10015000898111969C918923818308C1923009F489
:1001600007C112962D903C901397EB018A819B81D9
:100170001496AD90BD90CD90DC901797EC80FD80EB
:100180000E811F819101281B390BB90137FF04C073
:1001900066277727621B730B603271050CF061C014
:1001A000121613066CF537014801062E04C096940A
:1001B0008794779467940A94D2F721E030E040E086
:1001C00050E004C0220F331F441F551F6A95D2F719
:1001D00021503040404050402E213F2140235123A8
:1001E000211531054105510521F021E030E040E0C5
:1001F00050E079018A01E628F728082919293CC02E
:10020000232BD1F1260E371E35014601062E04C0E0
:1002100096948794779467940A94D2F721E030E01B
:1002200040E050E004C0220F331F441F551F6A9561
:10023000D2F721503040404050402A213B214C21F0
:100240005D21211531054105510521F021E030E006
:1002500040E050E059016A01A628B728C828D928EB
:100260000BC0821593052CF01C01AA24BB24650148
:1002700003C0EE24FF24870111969C91D2011196B0
:100280008C91981709F445C0992339F0A80197017A
:100290002A193B094C095D0906C0A60195012E19D2
:1002A0003F09400B510B57FD08C011823382228257
:1002B00024833583468357831DC081E08183338245
:1002C000228288279927DC01821B930BA40BB50B94
:1002D00084839583A683B7830DC0220F331F441FE9
:1002E000551F2483358346835783828193810197E9
:1002F000938382832481358146815781DA01C90144
:100300000197A109B1098F5F9F4FAF4FBF4328F3FA
:100310000BC0918333822282EA0CFB1C0C1D1D1D35
:10032000E482F5820683178383E08083248135810C
:100330004681578157FF1AC0C901AA2797FDA0958A
:10034000BA2F81709070A070B07056954795379510
:100350002795822B932BA42BB52B84839583A6837F
:10036000B78382819381019693838283DF0101C0E9
:10037000D201CD01CDB7DEB7E2E10C94DE19A0E2E7
:10038000B0E0E5ECF1E00C94CE1969837A838B83BD
:100390009C832D833E834F835887E9E0EE2EF12C1A
:1003A000EC0EFD1ECE010196B7010E94D0048E0115
:1003B0000F5E1F4FCE010596B8010E94D0048A89B6
:1003C00091E089278A8BC701B801AE01475E5F4F74
:1003D0000E9473000E94FB03A096E6E00C94EA19C9
:1003E000A0E2B0E0E6EFF1E00C94CE1969837A83E5
:1003F0008B839C832D833E834F835887F9E0EF2EB8
:10040000F12CEC0EFD1ECE010196B7010E94D00426
:100410008E010F5E1F4FCE010596B8010E94D004D9
:10042000C701B801AE01475E5F4F0E9473000E9492
:10043000FB03A096E6E00C94EA19A0E2B0E0E3E248
:10044000F2E00C94C21969837A838B839C832D8399
:100450003E834F835887CE010196BE01675F7F4F71
:100460000E94D004CE010596BE016F5E7F4F0E94B0
:10047000D0049985923088F089898230C8F0943010
:1004800019F4823051F404C0843029F4923081F49C
:100490008EEB90E0C6C0923049F420E09A858A89BC
:1004A000981321E02A87CE010996BBC0823049F417
:1004B00020E09A858A89981321E02A8BCE01419603
:1004C000B0C02D843E844F8458886D887E888F8884
:1004D000988CEE24FF248701AA24BB24650140E008
:1004E00050E060E070E0E0E0F0E0C1018170907009
:1004F000892BE9F0E60CF71C081D191D9A01AB01C8
:100500002A0D3B1D4C1D5D1D80E090E0A0E0B0E099
:10051000E614F7040805190520F481E090E0A0E056
:10052000B0E0BA01A901480F591F6A1F7B1FAA0C2E
:10053000BB1CCC1CDD1C97FE08C081E090E0A0E055
:10054000B0E0A82AB92ACA2ADB2A3196E032F1059E
:1005500049F0660C771C881C991C56944794379474
:100560002794C3CFFA85EA892B893C898B859C85A2
:10057000280F391F2E5F3F4F17C0CA01817090703E
:10058000892B61F016950795F794E79480E090E049
:10059000A0E0B0E8E82AF92A0A2B1B2B769567958C
:1005A000579547952F5F3F4F77FDE7CF0CC0440F1E
:1005B000551F661F771F17FD4160EE0CFF1C001FC3
:1005C000111F21503040403090E0590790E06907FA
:1005D00090E4790760F32B8F3C8FDB01CA018F77A2
:1005E0009070A070B07080349105A105B10561F4E0
:1005F00047FD0AC0E114F1040105110529F0405C32
:100600005F4F6F4F7F4F40781A8EFE1711F081E0D9
:100610008A8F4D8F5E8F6F8F78A383E0898FCE0195
:1006200049960E94FB03A096E2E10C94DE19A8E132
:10063000B0E0EDE1F3E00C94CE1969837A838B830B
:100640009C832D833E834F83588789E0E82EF12CCD
:10065000EC0EFD1ECE010196B7010E94D0048E0162
:100660000F5E1F4FCE010596B8010E94D004898508
:10067000823040F08989823028F0C701B8010E9499
:10068000480501C08FEF6896E6E00C94EA19A8E1EE
:10069000B0E0EDE4F3E00C94CE1969837A838B83A8
:1006A0009C832D833E834F83588789E0E82EF12C6D
:1006B000EC0EFD1ECE010196B7010E94D0048E0102
:1006C0000F5E1F4FCE010596B8010E94D0048985A8
:1006D000823040F08989823028F0C701B8010E9439
:1006E000480501C08FEF6896E6E00C94EA19A8E18E
:1006F000B0E0EDE7F3E00C94CE1969837A838B8345
:100700009C832D833E834F83588789E0E82EF12C0C
:10071000EC0EFD1ECE010196B7010E94D0048E01A1
:100720000F5E1F4FCE010596B8010E94D004898547
:10073000823040F08989823028F0C701B8010E94D8
:10074000480501C081E06896E6E00C94EA19ACE047
:10075000B0E0EDEAF3E00C94D21969837A838B83DD
:100760009C83CE010196BE016B5F7F4F0E94D00437
:100770008D81823061F1823050F1843021F48E819C
:10078000882351F12EC02F81388537FD20C06E811E
:100790002F3131051CF06623F9F023C08EE190E083
:1007A000821B930B29853A854B855C8504C0569541
:1007B0004795379527958A95D2F76623B1F05095DE
:1007C0004095309521953F4F4F4F5F4F0EC020E031
:1007D00030E040E050E009C02FEF3FEF4FEF5FE720
:1007E00004C020E030E040E050E8B901CA012C9696
:1007F000E2E00C94EE19DF92EF92FF920F931F93B9
:10080000FC01E480F58006811781D18080818230EF
:1008100048F480E090E0A0E1B0E0E82AF92A0A2B51
:100820001B2BA5C0843009F49FC0823021F4EE2434
:10083000FF24870105C0E114F1040105110519F435
:10084000E0E0F0E096C0628173819FEF6238790743
:100850000CF05BC022E83FEF261B370B2A31310535
:100860002CF020E030E040E050E02AC0B801A701C1
:10087000022E04C076956795579547950A94D2F74E
:1008800081E090E0A0E0B0E004C0880F991FAA1FAB
:10089000BB1F2A95D2F70197A109B1098E219F218B
:1008A000A023B1230097A105B10521F081E090E0DC
:1008B000A0E0B0E09A01AB01282B392B4A2B5B2B2F
:1008C000DA01C9018F779070A070B0708034910503
:1008D000A105B10539F427FF09C0205C3F4F4F4FF8
:1008E0005F4F04C0215C3F4F4F4F5F4FE0E0F0E0AF
:1008F0002030A0E03A07A0E04A07A0E45A0710F031
:10090000E1E0F0E079018A0127C06038710564F503
:10091000FB01E158FF4FD801C7018F779070A0709D
:10092000B07080349105A105B10539F4E7FE0DC022
:1009300080E490E0A0E0B0E004C08FE390E0A0E0AD
:10094000B0E0E80EF91E0A1F1B1F17FF05C0169521
:100950000795F794E794319687E016950795F794F5
:10096000E7948A95D1F705C0EE24FF248701EFEFC5
:10097000F0E06E2F679566276795902F9F77D79445
:10098000DD24D7948E2F8695492F462B582F5D292D
:10099000B701CA011F910F91FF90EF90DF9008956A
:1009A000FC01DB01408151812281622F6F7770E071
:1009B000221F2227221F9381892F880F822B282F05
:1009C00030E0991F9927991F11969C931197211533
:1009D0003105A9F5411551056105710511F482E054
:1009E00037C082E89FEF13969C938E9312979A01DB
:1009F000AB0167E0220F331F441F551F6A95D1F7E3
:100A000083E08C930DC0220F331F441F551F129695
:100A10008D919C911397019713969C938E931297A7
:100A2000203080E0380780E0480780E4580758F31A
:100A300014962D933D934D935C93179708952F3FF4
:100A4000310579F4411551056105710519F484E00A
:100A50008C93089564FF03C081E08C9312C01C92B4
:100A600010C02F57304013963C932E93129783E07B
:100A70008C9387E0440F551F661F771F8A95D1F727
:100A8000706414964D935D936D937C9317970895BE
:100A90001F93DC01FB019C91923008F447C08081D8
:100AA000823008F443C0943051F411961C91843084
:100AB00099F58181682F70E0611B71093FC0843016
:100AC00021F0923031F48230B9F18181882389F1AB
:100AD0002DC011961C9111978230F1F08181181769
:100AE000D9F412962D913C911397828193818217AC
:100AF000930794F028173907BCF014968D919D91B7
:100B00000D90BC91A02D24813581468157812817F5
:100B100039074A075B0718F4112341F00AC082170E
:100B20009307A407B50740F4112319F061E070E0C2
:100B300005C06FEF7FEF02C060E070E0CB011F9156
:100B40000895DF93CF9300D000D00F92CDB7DEB7DA
:100B500089836A834B838A81883008F0D5C0898174
:100B6000843008F0D1C08981282F30E03D832C8368
:100B70008C819D818130910509F443C02C813D8198
:100B8000223031052CF48C819D81009771F0BCC01E
:100B90002C813D812230310509F45FC08C819D811B
:100BA0008330910509F485C0AFC08B818130A1F4F9
:100BB000AAE3B0E0EAE3F0E08081482F8A81282FA1
:100BC00030E081E090E0022E02C0880F991F0A9465
:100BD000E2F7842B8C9398C0AAE3B0E0EAE3F0E05C
:100BE0008081482F8A81282F30E081E090E0022E1A
:100BF00002C0880F991F0A94E2F7809584238C9392
:100C000083C08B818130A1F4A7E3B0E0E7E3F0E09B
:100C10008081482F8A81282F30E081E090E0022EE9
:100C200002C0880F991F0A94E2F7842B8C936CC042
:100C3000A7E3B0E0E7E3F0E08081482F8A81282F26
:100C400030E081E090E0022E02C0880F991F0A94E4
:100C5000E2F7809584238C9357C08B818130A1F477
:100C6000A4E3B0E0E4E3F0E08081482F8A81282FFC
:100C700030E081E090E0022E02C0880F991F0A94B4
:100C8000E2F7842B8C9340C0A4E3B0E0E4E3F0E00F
:100C90008081482F8A81282F30E081E090E0022E69
:100CA00002C0880F991F0A94E2F7809584238C93E1
:100CB0002BC08B818130A1F4A1E3B0E0E1E3F0E04F
:100CC0008081482F8A81282F30E081E090E0022E39
:100CD00002C0880F991F0A94E2F7842B8C9314C0EA
:100CE000A1E3B0E0E1E3F0E08081482F8A81282F82
:100CF00030E081E090E0022E02C0880F991F0A9434
:100D0000E2F7809584238C930F900F900F900F90B3
:100D10000F90CF91DF910895DF93CF9300D000D053
:100D20000F92CDB7DEB789836A834B838A8188307F
:100D300008F0D5C08981843008F0D1C08981282F7E
:100D400030E03D832C838C819D818130910509F4B5
:100D500043C02C813D81223031052CF48C819D8152
:100D6000009771F0BCC02C813D812230310509F41F
:100D70005FC08C819D818330910509F485C0AFC02F
:100D80008B818823A9F4ABE3B0E0EBE3F0E0808152
:100D9000482F8A81282F30E081E090E0022E02C0A7
:100DA000880F991F0A94E2F7809584238C9397C04B
:100DB000ABE3B0E0EBE3F0E08081482F8A81282F9D
:100DC00030E081E090E0022E02C0880F991F0A9463
:100DD000E2F7842B8C9383C08B818823A9F4A8E34A
:100DE000B0E0E8E3F0E08081482F8A81282F30E0EE
:100DF00081E090E0022E02C0880F991F0A94E2F76A
:100E0000809584238C936BC0A8E3B0E0E8E3F0E026
:100E10008081482F8A81282F30E081E090E0022EE7
:100E200002C0880F991F0A94E2F7842B8C9357C055
:100E30008B818823A9F4A5E3B0E0E5E3F0E08081AD
:100E4000482F8A81282F30E081E090E0022E02C0F6
:100E5000880F991F0A94E2F7809584238C933FC0F2
:100E6000A5E3B0E0E5E3F0E08081482F8A81282FF8
:100E700030E081E090E0022E02C0880F991F0A94B2
:100E8000E2F7842B8C932BC08B818823A9F4A2E3F7
:100E9000B0E0E2E3F0E08081482F8A81282F30E043
:100EA00081E090E0022E02C0880F991F0A94E2F7B9
:100EB000809584238C9313C0A2E3B0E0E2E3F0E0DA
:100EC0008081482F8A81282F30E081E090E0022E37
:100ED00002C0880F991F0A94E2F7842B8C930F901D
:100EE0000F900F900F900F90CF91DF910895DF93A7
:100EF000CF93CDB7DEB72A970FB6F894DEBF0FBEFB
:100F0000CDBF89836A838A81883018F489818430CF
:100F100010F019868AC08981282F30E038872F8306
:100F20004F8158854130510589F18F8198858230F4
:100F3000910534F42F8138852115310569F074C08D
:100F40004F81588542305105D9F18F819885833082
:100F5000910509F44FC068C0E9E3F0E08081282FD3
:100F600030E08A81882F90E0A90102C0559547950D
:100F70008A95E2F7CA0181709070882319F051E0D8
:100F80005E8301C01E828E8189874FC0E6E3F0E058
:100F90008081282F30E08A81882F90E0A90102C04B
:100FA000559547958A95E2F7CA018170907088231C
:100FB00019F051E05D8301C01D828D81898735C0A4
:100FC000E3E3F0E08081282F30E08A81882F90E0F1
:100FD000A90102C0559547958A95E2F7CA0181702B
:100FE0009070882319F051E05C8301C01C828C81D1
:100FF00089871BC0E0E3F0E08081282F30E08A8100
:10100000882F90E0A90102C0559547958A95E2F78F
:10101000CA0181709070882319F051E05B8301C090
:101020001B828B81898701C002C099859A878A8536
:101030002A960FB6F894DEBF0FBECDBFCF91DF91D9
:101040000895DF93CF9300D000D0CDB7DEB789836A
:101050006A838981843090F58981282F30E03C8330
:101060002B838B819C8181309105D1F02B813C8138
:10107000223031052CF48B819C81009761F01EC0D9
:101080002B813C812230310581F08B819C81833022
:10109000910581F013C0EAE3F0E08A8180830EC0FD
:1010A000E7E3F0E08A81808309C0E4E3F0E08A812D
:1010B000808304C0E1E3F0E08A8180830F900F9089
:1010C0000F900F90CF91DF910895DF93CF9300D0D1
:1010D00000D0CDB7DEB789836A838981843090F5EB
:1010E0008981282F30E03C832B838B819C81813048
:1010F0009105D1F02B813C81223031052CF48B817C
:101100009C81009761F01EC02B813C81223031050B
:1011100081F08B819C818330910581F013C0EBE3DA
:10112000F0E08A8180830EC0E8E3F0E08A8180836A
:1011300009C0E5E3F0E08A81808304C0E2E3F0E0E7
:101140008A8180830F900F900F900F90CF91DF9145
:101150000895DF93CF9300D000D00F92CDB7DEB7C4
:1011600089838981843010F01C8234C08981282FC2
:1011700030E03B832A838A819B8181309105D1F0C5
:101180002A813B81223031052CF48A819B81009792
:1011900061F01FC02A813B812230310581F08A81B4
:1011A0009B818330910581F014C0E9E3F0E09081E8
:1011B0009C8310C0E6E3F0E020812C830BC0E3E3C6
:1011C000F0E030813C8306C0E0E3F0E080818C8376
:1011D00001C002C09C819D838D810F900F900F9064
:1011E0000F900F90CF91DF910895DF93CF9300D0B0
:1011F00000D000D0CDB7DEB789836A838A8188307A
:1012000008F07BC08981843008F077C08981282F5D
:1012100030E03D832C838C819D818130910561F18B
:101220002C813D81223031052CF48C819D810097E9
:1012300069F063C02C813D812230310591F18C81B0
:101240009D818330910509F442C057C0ABE3B0E003
:10125000EBE3F0E08081482F8A81282F30E081E0A5
:1012600090E0022E02C0880F991F0A94E2F78427AB
:101270008C939C919B8342C0A8E3B0E0E8E3F0E04C
:101280008081482F8A81282F30E081E090E002C0E1
:10129000880F991F2A95E2F784278C932C912B8332
:1012A0002DC0A5E3B0E0E5E3F0E08081482F8A811E
:1012B000282F30E081E090E0022E02C0880F991FB5
:1012C0000A94E2F784278C933C913B8317C0A2E3F6
:1012D000B0E0E2E3F0E08081482F8A81282F30E0FF
:1012E00081E090E0022E02C0880F991F0A94E2F775
:1012F00084278C938C918B8301C002C09B819E8339
:101300008E8126960FB6F894DEBF0FBECDBFCF916B
:10131000DF910895DF93CF93CDB7DEB72E970FB649
:10132000F894DEBF0FBECDBF80E061E041E00E94D7
:10133000A10580E062E041E00E94A10580E090E02C
:10134000A0EAB1E48B879C87AD87BE876B857C85DF
:101350008D859E8520E030E04AE755E40E941D021D
:10136000DC01CB018F839887A987BA876F81788545
:1013700089859A8520E030E040E85FE30E947703AA
:1013800088232CF481E090E09E838D833FC06F81A1
:10139000788589859A8520E03FEF4FE757E40E94E2
:1013A000170318164CF56B857C858D859E8520E08E
:1013B00030E040E251E40E941D02DC01CB01BC019F
:1013C000CD010E944700DC01CB019E838D830FC0BD
:1013D00080E991E09C838B838B819C810197F1F75D
:1013E0009C838B838D819E8101979E838D838D81CC
:1013F0009E81009769F714C06F81788589859A85E9
:101400000E944700DC01CB019E838D838D819E81EC
:101410009A83898389819A810197F1F79A838983D5
:1014200080E063E041E00E94A10580E064E041E0EB
:101430000E94A10580E065E041E00E94A10580E0F6
:1014400066E041E00E94A10583E30E943C0A82E33A
:101450000E943C0A88E20E943C0A8CE00E943C0AFE
:1014600081E00E943C0A2E960FB6F894DEBF0FBEB4
:10147000CDBFCF91DF9108950F931F93DF93CF934B
:10148000CDB7DEB7C356D0400FB6F894DEBF0FBE5F
:10149000CDBFFE01ED59FF4F808380E061E040E069
:1014A0000E948C06FE01E15AFF4F80E090E0A0E828
:1014B000BFE380839183A283B3838E01055A1F4FBC
:1014C000FE01E15AFF4F608171818281938120E0AA
:1014D00030E04AE755E40E941D02DC01CB01F8012F
:1014E00080839183A283B383FE01E55AFF4F60811D
:1014F00071818281938120E030E040E85FE30E94C7
:101500007703882344F4FE01E75AFF4F81E090E01F
:101510009183808364C0FE01E55AFF4F6081718131
:101520008281938120E03FEF4FE757E40E94170349
:1015300018160CF043C0FE01E15AFF4F6081718123
:101540008281938120E030E040E251E40E941D025C
:10155000DC01CB018E01075A1F4FBC01CD010E9457
:101560004700DC01CB01F801918380831FC0FE019D
:10157000E95AFF4F80E991E091838083FE01E95AA7
:10158000FF4F808191810197F1F7FE01E95AFF4FEA
:1015900091838083DE01A75ABF4FFE01E75AFF4FB8
:1015A00080819181019711969C938E93FE01E75A59
:1015B000FF4F808191810097D1F627C08E01075A95
:1015C0001F4FFE01E55AFF4F608171818281938137
:1015D0000E944700DC01CB01F80191838083DE018A
:1015E000AB5ABF4FFE01E75AFF4F808191818D9327
:1015F0009C93FE01EB5AFF4F808191810197F1F797
:10160000FE01EB5AFF4F9183808380E062E041E06E
:101610000E948C06FE01EF5AFF4F80E090E0A0E8A8
:10162000BFE380839183A283B3838E01035B1F4F4B
:10163000FE01EF5AFF4F608171818281938120E02A
:1016400030E04AE755E40E941D02DC01CB01F801BD
:1016500080839183A283B383FE01E35BFF4F6081AC
:1016600071818281938120E030E040E85FE30E9455
:101670007703882344F4FE01E55BFF4F81E090E0AF
:101680009183808364C0FE01E35BFF4F60817181C1
:101690008281938120E03FEF4FE757E40E941703D8
:1016A00018160CF043C0FE01EF5AFF4F60817181A4
:1016B0008281938120E030E040E251E40E941D02EB
:1016C000DC01CB018E01055B1F4FBC01CD010E94E7
:1016D0004700DC01CB01F801918380831FC0FE012C
:1016E000E75BFF4F80E991E091838083FE01E75B38
:1016F000FF4F808191810197F1F7FE01E75BFF4F7A
:1017000091838083DE01A55BBF4FFE01E55BFF4F48
:1017100080819181019711969C938E93FE01E55BE8
:10172000FF4F808191810097D1F627C08E01055B24
:101730001F4FFE01E35BFF4F6081718182819381C6
:101740000E944700DC01CB01F80191838083DE0118
:10175000A95BBF4FFE01E55BFF4F808191818D93B7
:101760009C93FE01E95BFF4F808191810197F1F726
:10177000FE01E95BFF4F91838083FE01ED59FF4F2E
:101780008081882F90E080719070959587959595D0
:1017900087959595879595958795982F80E063E037
:1017A000492F0E948C06FE01ED59FF4F8081882F42
:1017B00090E0807290709595879595958795959511
:1017C00087959595879595958795982F80E064E006
:1017D000492F0E948C06FE01ED59FF4F8081882F12
:1017E00090E080749070082E892F000C881F990B50
:1017F000000C881F991F982F80E065E0492F0E94F8
:101800008C06FE01ED59FF4F8081982F991F992773
:10181000991F80E066E0492F0E948C06FE01ED5B77
:10182000FF4F80E090E0A0E8BFE380839183A28334
:10183000B3838E01015C1F4FFE01ED5BFF4F6081A2
:1018400071818281938120E030E04AE755E40E9473
:101850001D02DC01CB01F80180839183A283B38355
:10186000FE01FF96608171818281938120E030E0EA
:1018700040E85FE30E94770388232CF481E090E046
:101880009EAF8DAF46C0FE01FF966081718182815F
:10189000938120E03FEF4FE757E40E9417031816AB
:1018A00064F5FE01ED5BFF4F608171818281938160
:1018B00020E030E040E251E40E941D02DC01CB0157
:1018C000BC01CD010E944700DC01CB019EAF8DAF72
:1018D0000FC080E991E09CAF8BAF8BAD9CAD0197C1
:1018E000F1F79CAF8BAF8DAD9EAD01979EAF8DAFE5
:1018F0008DAD9EAD009769F716C0FE01FF96608121
:101900007181828193810E944700DC01CB019EAFEF
:101910008DAF8DAD9EAD9AAF89AF89AD9AAD019770
:10192000F1F79AAF89AF80E062E040E00E948C0658
:1019300080E090E0A0E8BFE38DAB9EABAFABB8AF6B
:101940006DA97EA98FA998AD20E030E04AE755E463
:101950000E941D02DC01CB0189AB9AABABABBCABE7
:1019600069A97AA98BA99CA920E030E040E85FE34F
:101970000E94770388232CF481E090E098AB8FA736
:101980003FC069A97AA98BA99CA920E03FEF4FE746
:1019900057E40E94170318164CF56DA97EA98FA96C
:1019A00098AD20E030E040E251E40E941D02DC01ED
:1019B000CB01BC01CD010E944700DC01CB0198ABFB
:1019C0008FA70FC080E991E09EA78DA78DA59EA54A
:1019D0000197F1F79EA78DA78FA598A9019798ABBE
:1019E0008FA78FA598A9009769F714C069A97AA94C
:1019F0008BA99CA90E944700DC01CB0198AB8FA763
:101A00008FA598A99CA78BA78BA59CA50197F1F7FB
:101A10009CA78BA780E062E041E00E948C0680E0FA
:101A200090E0A0E8BFE38FA398A7A9A7BAA76FA1EA
:101A300078A589A59AA520E030E04AE755E40E9400
:101A40001D02DC01CB018BA39CA3ADA3BEA36BA1A4
:101A50007CA18DA19EA120E030E040E85FE30E94E0
:101A6000770388232CF481E090E09AA389A33FC0F8
:101A70006BA17CA18DA19EA120E03FEF4FE757E431
:101A80000E94170318164CF56FA178A589A59AA591
:101A900020E030E040E251E40E941D02DC01CB0175
:101AA000BC01CD010E944700DC01CB019AA389A3B0
:101AB0000FC080E991E098A38F8F8F8D98A1019737
:101AC000F1F798A38F8F89A19AA101979AA389A36F
:101AD00089A19AA1009769F714C06BA17CA18DA17F
:101AE0009EA10E944700DC01CB019AA389A389A192
:101AF0009AA19E8F8D8F8D8D9E8D0197F1F79E8F70
:101B00008D8FFE01ED59FF4F8081982F917080E0FD
:101B100063E0492F0E948C06FE01ED59FF4F808142
:101B2000882F90E08270907095958795982F80E02F
:101B300064E0492F0E948C06FE01ED59FF4F808121
:101B4000882F90E0847090709595879595958795EE
:101B5000982F80E065E0492F0E948C06FE01ED5928
:101B6000FF4F8081882F90E08870907095958795C1
:101B70009595879595958795982F80E066E0492FF4
:101B80000E948C0680E090E0A0E8BFE3898F9A8FE6
:101B9000AB8FBC8F698D7A8D8B8D9C8D20E030E072
:101BA0004AE755E40E941D02DC01CB018D8B9E8B20
:101BB000AF8BB88F6D897E898F89988D20E030E05A
:101BC00040E85FE30E94770388232CF481E090E0F3
:101BD0009C8B8B8B3FC06D897E898F89988D20E08F
:101BE0003FEF4FE757E40E94170318164CF5698D35
:101BF0007A8D8B8D9C8D20E030E040E251E40E9494
:101C00001D02DC01CB01BC01CD010E944700DC01BB
:101C1000CB019C8B8B8B0FC080E991E09A8B898BD9
:101C200089899A890197F1F79A8B898B8B899C898D
:101C300001979C8B8B8B8B899C89009769F714C0CB
:101C40006D897E898F89988D0E944700DC01CB01C8
:101C50009C8B8B8B8B899C89988B8F878F859889A0
:101C60000197F1F7988B8F8780E062E040E00E9457
:101C70008C0680E090E0A0E8BFE38B879C87AD876F
:101C8000BE876B857C858D859E8520E030E04AE7A8
:101C900055E40E941D02DC01CB018F839887A98740
:101CA000BA876F81788589859A8520E030E040E8A1
:101CB0005FE30E94770388232CF481E090E09E8309
:101CC0008D833FC06F81788589859A8520E03FEFBD
:101CD0004FE757E40E94170318164CF56B857C8577
:101CE0008D859E8520E030E040E251E40E941D0297
:101CF000DC01CB01BC01CD010E944700DC01CB011E
:101D00009E838D830FC080E991E09C838B838B81C0
:101D10009C810197F1F79C838B838D819E81019734
:101D20009E838D838D819E81009769F714C06F819A
:101D3000788589859A850E944700DC01CB019E83C6
:101D40008D838D819E819A83898389819A81019770
:101D5000F1F79A838983CD59DF4F0FB6F894DEBF30
:101D60000FBECDBFCF91DF911F910F9108950F93BB
:101D70001F93DF93CF93CDB7DEB7C356D0400FB6D6
:101D8000F894DEBF0FBECDBFFE01ED59FF4F80833B
:101D900080E061E041E00E948C06FE01E15AFF4FC5
:101DA00080E090E0A0E8BFE380839183A283B383C7
:101DB0008E01055A1F4FFE01E15AFF4F608171816C
:101DC0008281938120E030E04AE755E40E941D02C1
:101DD000DC01CB01F80180839183A283B383FE01F0
:101DE000E55AFF4F608171818281938120E030E06C
:101DF00040E85FE30E947703882344F4FE01E75A3A
:101E0000FF4F81E090E09183808364C0FE01E55A3A
:101E1000FF4F608171818281938120E03FEF4FE726
:101E200057E40E94170318160CF043C0FE01E15A54
:101E3000FF4F608171818281938120E030E040E238
:101E400051E40E941D02DC01CB018E01075A1F4F95
:101E5000BC01CD010E944700DC01CB01F801918358
:101E600080831FC0FE01E95AFF4F80E991E0918312
:101E70008083FE01E95AFF4F808191810197F1F73C
:101E8000FE01E95AFF4F91838083DE01A75ABF4FBD
:101E9000FE01E75AFF4F80819181019711969C9333
:101EA0008E93FE01E75AFF4F808191810097D1F612
:101EB00027C08E01075A1F4FFE01E55AFF4F608170
:101EC0007181828193810E944700DC01CB01F8017E
:101ED00091838083DE01AB5ABF4FFE01E75AFF4F6B
:101EE000808191818D939C93FE01EB5AFF4F8081FD
:101EF00091810197F1F7FE01EB5AFF4F91838083A7
:101F000080E062E041E00E948C06FE01EF5AFF4F44
:101F100080E090E0A0E8BFE380839183A283B38355
:101F20008E01035B1F4FFE01EF5AFF4F60817181ED
:101F30008281938120E030E04AE755E40E941D024F
:101F4000DC01CB01F80180839183A283B383FE017E
:101F5000E35BFF4F608171818281938120E030E0FB
:101F600040E85FE30E947703882344F4FE01E55BC9
:101F7000FF4F81E090E09183808364C0FE01E35BCA
:101F8000FF4F608171818281938120E03FEF4FE7B5
:101F900057E40E94170318160CF043C0FE01EF5AD5
:101FA000FF4F608171818281938120E030E040E2C7
:101FB00051E40E941D02DC01CB018E01055B1F4F25
:101FC000BC01CD010E944700DC01CB01F8019183E7
:101FD00080831FC0FE01E75BFF4F80E991E09183A2
:101FE0008083FE01E75BFF4F808191810197F1F7CC
:101FF000FE01E75BFF4F91838083DE01A55BBF4F4E
:10200000FE01E55BFF4F80819181019711969C93C2
:102010008E93FE01E55BFF4F808191810097D1F6A1
:1020200027C08E01055B1F4FFE01E35BFF4F608100
:102030007181828193810E944700DC01CB01F8010C
:1020400091838083DE01A95BBF4FFE01E55BFF4FFB
:10205000808191818D939C93FE01E95BFF4F80818C
:1020600091810197F1F7FE01E95BFF4F9183808336
:10207000FE01ED59FF4F8081882F90E080719070B4
:102080009595879595958795959587959595879538
:10209000982F80E063E0492F0E948C06FE01ED59E5
:1020A000FF4F8081882F90E0807290709595879582
:1020B0009595879595958795959587959595879508
:1020C000982F80E064E0492F0E948C06FE01ED59B4
:1020D000FF4F8081882F90E080749070082E892FA8
:1020E000000C881F990B000C881F991F982F80E007
:1020F00065E0492F0E948C06FE01ED59FF4F80815B
:10210000982F991F9927991F80E066E0492F0E9418
:102110008C06FE01ED5BFF4F80E090E0A0E8BFE39E
:1021200080839183A283B3838E01015C1F4FFE01E4
:10213000ED5BFF4F608171818281938120E030E00F
:102140004AE755E40E941D02DC01CB01F8018083BF
:102150009183A283B383FE01FF96608171818281A6
:10216000938120E030E040E85FE30E94770388231A
:102170002CF481E090E09EAF8DAF46C0FE01FF964B
:10218000608171818281938120E03FEF4FE757E4C6
:102190000E941703181664F5FE01ED5BFF4F608186
:1021A00071818281938120E030E040E251E40E941D
:1021B0001D02DC01CB01BC01CD010E944700DC0106
:1021C000CB019EAF8DAF0FC080E991E09CAF8BAF8C
:1021D0008BAD9CAD0197F1F79CAF8BAF8DAD9EADF4
:1021E00001979EAF8DAF8DAD9EAD009769F716C07C
:1021F000FE01FF9660817181828193810E94470078
:10220000DC01CB019EAF8DAF8DAD9EAD9AAF89AF96
:1022100089AD9AAD0197F1F79AAF89AF80E062E09E
:1022200040E00E948C0680E090E0A0E8BFE38DAB28
:102230009EABAFABB8AF6DA97EA98FA998AD20E0DA
:1022400030E04AE755E40E941D02DC01CB0189AB76
:102250009AABABABBCAB69A97AA98BA99CA920E0CE
:1022600030E040E85FE30E94770388232CF481E0AC
:1022700090E098AB8FA73FC069A97AA98BA99CA9C8
:1022800020E03FEF4FE757E40E94170318164CF584
:102290006DA97EA98FA998AD20E030E040E251E41D
:1022A0000E941D02DC01CB01BC01CD010E94470050
:1022B000DC01CB0198AB8FA70FC080E991E09EA70E
:1022C0008DA78DA59EA50197F1F79EA78DA78FA538
:1022D00098A9019798AB8FA78FA598A9009769F740
:1022E00014C069A97AA98BA99CA90E944700DC01A6
:1022F000CB0198AB8FA78FA598A99CA78BA78BA57F
:102300009CA50197F1F79CA78BA780E062E041E0D4
:102310000E948C0680E090E0A0E8BFE38FA398A71E
:10232000A9A7BAA76FA178A589A59AA520E030E052
:102330004AE755E40E941D02DC01CB018BA39CA35C
:10234000ADA3BEA36BA17CA18DA19EA120E030E036
:1023500040E85FE30E94770388232CF481E090E05B
:102360009AA389A33FC06BA17CA18DA19EA120E06F
:102370003FEF4FE757E40E94170318164CF56FA183
:1023800078A589A59AA520E030E040E251E40E94BA
:102390001D02DC01CB01BC01CD010E944700DC0124
:1023A000CB019AA389A30FC080E991E098A38F8FF6
:1023B0008F8D98A10197F1F798A38F8F89A19AA18A
:1023C00001979AA389A389A19AA1009769F714C0DC
:1023D0006BA17CA18DA19EA10E944700DC01CB01D5
:1023E0009AA389A389A19AA19E8F8D8F8D8D9E8D91
:1023F0000197F1F79E8F8D8FFE01ED59FF4F808180
:10240000982F917080E063E0492F0E948C06FE01B6
:10241000ED59FF4F8081882F90E0827090709595E4
:102420008795982F80E064E0492F0E948C06FE017A
:10243000ED59FF4F8081882F90E0847090709595C2
:10244000879595958795982F80E065E0492F0E94A4
:102450008C06FE01ED59FF4F8081882F90E0887037
:102460009070959587959595879595958795982FD3
:1024700080E066E0492F0E948C0680E090E0A0E8B2
:10248000BFE3898F9A8FAB8FBC8F698D7A8D8B8DCF
:102490009C8D20E030E04AE755E40E941D02DC01FB
:1024A000CB018D8B9E8BAF8BB88F6D897E898F8989
:1024B000988D20E030E040E85FE30E9477038823B6
:1024C0002CF481E090E09C8B8B8B3FC06D897E89E2
:1024D0008F89988D20E03FEF4FE757E40E94170364
:1024E00018164CF5698D7A8D8B8D9C8D20E030E02F
:1024F00040E251E40E941D02DC01CB01BC01CD0190
:102500000E944700DC01CB019C8B8B8B0FC080E9C4
:1025100091E09A8B898B89899A890197F1F79A8B37
:10252000898B8B899C8901979C8B8B8B8B899C8950
:10253000009769F714C06D897E898F89988D0E94F4
:102540004700DC01CB019C8B8B8B8B899C89988B02
:102550008F878F8598890197F1F7988B8F8780E017
:1025600062E040E00E948C0680E090E0A0E8BFE3DB
:102570008B879C87AD87BE876B857C858D859E8587
:1025800020E030E04AE755E40E941D02DC01CB0167
:102590008F839887A987BA876F81788589859A857F
:1025A00020E030E040E85FE30E94770388232CF4CA
:1025B00081E090E09E838D833FC06F81788589851F
:1025C0009A8520E03FEF4FE757E40E941703181663
:1025D0004CF56B857C858D859E8520E030E040E262
:1025E00051E40E941D02DC01CB01BC01CD010E941F
:1025F0004700DC01CB019E838D830FC080E991E011
:102600009C838B838B819C810197F1F79C838B83C7
:102610008D819E8101979E838D838D819E81009700
:1026200069F714C06F81788589859A850E94470073
:10263000DC01CB019E838D838D819E819A8389836A
:1026400089819A810197F1F79A838983CD59DF4F68
:102650000FB6F894DEBF0FBECDBFCF91DF911F91B3
:102660000F910895DF93CF9300D00F92CDB7DEB7CF
:102670009B838A8319820EC08981282F30E08A814A
:102680009B81FC01E20FF31F80810E94B70E8981BC
:102690008F5F89838981282F30E08A819B81FC01AB
:1026A000E20FF31F8081882339F70F900F900F906E
:1026B000CF91DF910895DF93CF9300D000D00F9298
:1026C000CDB7DEB78A836B838A81282F30E03D83C4
:1026D0002C838C819D8181309105C1F02C813D81BD
:1026E000223031052CF48C819D81009761F019C056
:1026F0002C813D812230310569F08C819D818330B0
:10270000910561F00EC08B8189830BC08B81805C49
:10271000898307C08B81805F898303C08B81805B45
:102720008983898180680E943C0A0F900F900F90E6
:102730000F900F90CF91DF910895DF93CF9300D04A
:1027400000D0CDB7DEB789836A835C834B838981F0
:102750006A810E945B138B819C810E9432130F90CF
:102760000F900F900F90CF91DF910895DF93CF934B
:10277000CDB7DEB762970FB6F894DEBF0FBECDBF00
:102780009A8B898B89899A899E012F5F3F4FB90166
:102790004AE050E00E94171ACE0101960E943213BF
:1027A00062960FB6F894DEBF0FBECDBFCF91DF911A
:1027B0000895DF93CF93CDB7DEB781E00E943C0A46
:1027C000CF91DF910895DF93CF930F92CDB7DEB70E
:1027D000198213C08981982F9C5F81E0692F41E0A5
:1027E0000E94A1058981982F9C5F81E0692F41E0BB
:1027F0000E948C0689818F5F89838981843050F3A0
:1028000019820BC08981982F9E5F83E0692F40E079
:102810000E94A10589818F5F89838981843090F32B
:102820000F90CF91DF910895DF93CF9300D00F9257
:10283000CDB7DEB71A823BC08A81982F9C5F81E0BA
:10284000692F40E00E948C06198223C08981982F4D
:102850009E5F83E0692F0E9477078823B9F48A81FD
:10286000982F9C5F81E0692F41E00E948C068A814D
:10287000882F90E0880F991F880F991F982F8981C2
:10288000890F8F5F0E9463148B8316C089818F5FCD
:10289000898389818430D0F28A81982F9C5F81E07E
:1028A000692F41E00E948C068A818F5F8A838A812A
:1028B000843010F28FEF8B838B810F900F900F90ED
:1028C000CF91DF910895DF93CF9300D000D0CDB7A3
:1028D000DEB78A8319828A81282F30E03C832B83DC
:1028E0008B819C818830910509F470C02B813C81DB
:1028F000293031055CF58B819C818430910509F488
:1029000059C02B813C81253031059CF48B819C8101
:102910008230910509F448C02B813C812330310578
:102920000CF045C08B819C818130910509F439C040
:1029300068C02B813C812630310509F441C08B8170
:102940009C81873091050CF03EC037C02B813C81C3
:102950002C30310509F446C08B819C818D30910566
:102960005CF42B813C812A303105B1F18B819C8153
:102970008B309105A4F52DC02B813C812E30310583
:10298000B9F18B819C818E3091057CF12B813C814A
:102990002F30310581F18B819C818031910571F15E
:1029A00030C087E389832FC088E389832CC089E303
:1029B000898329C085E2898326C084E3898323C073
:1029C00085E3898320C086E389831DC08AE28983E9
:1029D0001AC081E3898317C082E3898314C083E32B
:1029E000898311C08DE289830EC08DE089830BC07D
:1029F00080E3898308C08DE3898305C08BE28983E6
:102A000002C08FEF898389810F900F900F900F90F4
:102A1000CF91DF910895DF93CF93CDB7DEB7AA971B
:102A20000FB6F894DEBF0FBECDBF0E94E3130E9425
:102A30008A0980E690E00E94321380E090E0AAEFDD
:102A4000B3E48FA398A7A9A7BAA76FA178A589A572
:102A50009AA520E030E04AE755E40E941D02DC011F
:102A6000CB018BA39CA3ADA3BEA36BA17CA18DA125
:102A70009EA120E030E040E85FE30E9477038823D6
:102A80002CF481E090E09AA389A33FC06BA17CA1C4
:102A90008DA19EA120E03FEF4FE757E40E9417036E
:102AA00018164CF56FA178A589A59AA520E030E00D
:102AB00040E251E40E941D02DC01CB01BC01CD01CA
:102AC0000E944700DC01CB019AA389A30FC080E9D3
:102AD00091E098A38F8F8F8D98A10197F1F798A31C
:102AE0008F8F89A19AA101979AA389A389A19AA1FD
:102AF000009769F714C06BA17CA18DA19EA10E94D3
:102B00004700DC01CB019AA389A389A19AA19E8FDA
:102B10008D8F8D8D9E8D0197F1F79E8F8D8F21E783
:102B200030E081E060E0A9010E949D1380E090E028
:102B3000AAEFB3E4898F9A8FAB8FBC8F698D7A8DA2
:102B40008B8D9C8D20E030E04AE755E40E941D0209
:102B5000DC01CB018D8B9E8BAF8BB88F6D897E890D
:102B60008F89988D20E030E040E85FE30E94770392
:102B700088232CF481E090E09C8B8B8B3FC06D8987
:102B80007E898F89988D20E03FEF4FE757E40E94C0
:102B9000170318164CF5698D7A8D8B8D9C8D20E06E
:102BA00030E040E251E40E941D02DC01CB01BC0197
:102BB000CD010E944700DC01CB019C8B8B8B0FC0A9
:102BC00080E991E09A8B898B89899A890197F1F73D
:102BD0009A8B898B8B899C8901979C8B8B8B8B899A
:102BE0009C89009769F714C06D897E898F89988DBB
:102BF0000E944700DC01CB019C8B8B8B8B899C89CD
:102C0000988B8F878F8598890197F1F7988B8F879D
:102C10000E94D91382E890E00E9432132DE830E040
:102C200081E060E0A9010E949D1380E090E0AAEF9E
:102C3000B3E48B879C87AD87BE876B857C858D854C
:102C40009E8520E030E04AE755E40E941D02DC0149
:102C5000CB018F839887A987BA876F81788589850B
:102C60009A8520E030E040E85FE30E947703882304
:102C70002CF481E090E09E838D833FC06F81788546
:102C800089859A8520E03FEF4FE757E40E941703BC
:102C900018164CF56B857C858D859E8520E030E08F
:102CA00040E251E40E941D02DC01CB01BC01CD01D8
:102CB0000E944700DC01CB019E838D830FC080E919
:102CC00091E09C838B838B819C810197F1F79C839E
:102CD0008B838D819E8101979E838D838D819E81C3
:102CE000009769F714C06F81788589859A850E945D
:102CF0004700DC01CB019E838D838D819E819A8369
:102D0000898389819A810197F1F79A8389830E9447
:102D1000D913AA960FB6F894DEBF0FBECDBFCF91E0
:102D2000DF910895DF93CF93CDB7DEB762970FB6EB
:102D3000F894DEBF0FBECDBF04C00E941414809370
:102D4000C6008091C6008F3FC1F38091C6008D33CD
:102D500019F40E947B1751C08091C6008D30C1F4D8
:102D60000E94D9131092C8001A8A198A0BC0898947
:102D70009A89FC01E753FF4F108289899A8901964D
:102D80009A8B898B89899A898031910584F335C022
:102D90008091C8008031B8F48091C800882F90E0FD
:102DA0002091C600FC01E753FF4F20838091C800AB
:102DB0008F5F8093C80029EC30E080E060E0A901DB
:102DC0000E949D131AC0188A1F860BC08F85988990
:102DD000FC01E753FF4F10828F8598890196988BED
:102DE0008F878F8598898031910584F32DE930E0B4
:102DF00081E060E0A9010E949D1380E090E0A8E4DA
:102E0000B3E48B879C87AD87BE876B857C858D857A
:102E10009E8520E030E04AE755E40E941D02DC0177
:102E2000CB018F839887A987BA876F817885898539
:102E30009A8520E030E040E85FE30E947703882332
:102E40002CF481E090E09E838D833FC06F81788574
:102E500089859A8520E03FEF4FE757E40E941703EA
:102E600018164CF56B857C858D859E8520E030E0BD
:102E700040E251E40E941D02DC01CB01BC01CD0106
:102E80000E944700DC01CB019E838D830FC080E947
:102E900091E09C838B838B819C810197F1F79C83CC
:102EA0008B838D819E8101979E838D838D819E81F1
:102EB000009769F714C06F81788589859A850E948B
:102EC0004700DC01CB019E838D838D819E819A8397
:102ED000898389819A810197F1F79A8389838FEF9A
:102EE0008093C60062960FB6F894DEBF0FBECDBFCA
:102EF000CF91DF9108950F931F93DF93CF93CDB7B9
:102F0000DEB7CE55D0400FB6F894DEBF0FBECDBFB2
:102F10001C8E1B8E14C08B8D9C8D9C01220F331F29
:102F2000CE010196820F931FFC01BC968FEF9FEF9D
:102F3000918380838B8D9C8D01969C8F8B8F8B8D45
:102F40009C8D803191053CF31A8E198E0EC0298D0F
:102F50003A8DCE014D96FC01E20FF31F8FEF808377
:102F6000898D9A8D01969A8F898F898D9A8D80315E
:102F700091056CF3188E1F8A1E8A1D8A33C08F89B3
:102F8000988DFC01E753FF4F80818B32C1F08F8910
:102F9000988DFC01E753FF4F80818D3281F08F893E
:102FA000988DFC01E753FF4F80818A3241F08F8971
:102FB000988DFC01E753FF4F8081853271F42D8994
:102FC0003E894F89CE014D96FC01E20FF31F4083ED
:102FD0008D899E8901969E8B8D8B8F89988D019608
:102FE000988F8F8B8F89988D8031910544F28D8DCC
:102FF000882341F421EB30E081E060E0A9010E94E8
:103000009D134EC1CE01815B9F4F20E1FC01DF018A
:10301000822F1D928A95E9F75D8D89EC90E09E01E3
:10302000215B3F4FB90140E0252F0E945C19CE0182
:10303000815B9F4F0E94F9199EA78DA781E090E0C8
:103040009C8B8B8B81E090E09A8B898B74C02B8951
:103050003C89CE014D96FC01E20FF31F80818F3F2A
:1030600079F58B899C899C0121503040CE014D9689
:10307000FC01E20FF31F8081482F4F5F89EC90E045
:103080009E01215B3F4FB90120E10E945C19098933
:103090001A89CE01815B9F4F0E94F919AC019801FA
:1030A000220F331FCE010196820F931FFC01BC96A5
:1030B0005183408389899A8901969A8B898B41C073
:1030C0008B899C899C0121503040CE014D96FC019A
:1030D000E20FF31F8081482F4F5F2B893C89CE017F
:1030E0004D96FC01E20FF31F508189EC90E09E01A8
:1030F000215B3F4FB901252F0E945C1909891A896C
:10310000CE01815B9F4F0E94F919AC019801220FFB
:10311000331FCE010196820F931FFC01BC96518391
:10312000408389899A8901969A8B898B8B899C899E
:1031300001969C8B8B8B8B899C89803191050CF43B
:1031400086CF188A1F86A6C08F8598899C01220F7A
:10315000331FCE010196820F931FFC01BC96808124
:103160009181AFEF8F3F9A0709F49AC08F859889B4
:103170009C01220F331FCE010196820F931FFC0189
:10318000BC96808191819E01215B3F4FB9014AE04D
:1031900050E00E94171A9E01215B3F4F81E060E0E2
:1031A000A9010E949D1380E090E0AAEFB3E48B8711
:1031B0009C87AD87BE876B857C858D859E8520E04D
:1031C00030E04AE755E40E941D02DC01CB018F8309
:1031D0009887A987BA876F81788589859A8520E045
:1031E00030E040E85FE30E94770388232CF481E01D
:1031F00090E09E838D833FC06F81788589859A8515
:1032000020E03FEF4FE757E40E94170318164CF5F4
:103210006B857C858D859E8520E030E040E251E421
:103220000E941D02DC01CB01BC01CD010E944700C0
:10323000DC01CB019E838D830FC080E991E09C83EC
:103240008B838B819C810197F1F79C838B838D818C
:103250009E8101979E838D838D819E81009769F762
:1032600014C06F81788589859A850E944700DC01AA
:10327000CB019E838D838D819E819A8389838981F1
:103280009A810197F1F79A8389838F8598890196AE
:10329000988B8F878F859889813191050CF454CF55
:1032A000C25ADF4F0FB6F894DEBF0FBECDBFCF912D
:1032B000DF911F910F910895DF93CF93CDB7DEB7C4
:1032C0002C970FB6F894DEBF0FBECDBF98878F83C3
:1032D0007A8769874B872C871E821D820DC02D81BE
:1032E0003E8189859A85FC01E20FF31F10828D8152
:1032F0009E8101969E838D838D819E818031910573
:1033000074F38B85882F90E09C838B831A821982BB
:103310001AC029813A8189859A85DC01A20FB31FE1
:103320002B813C818F819885FC01E20FF31F808106
:103330008C938B819C8101969C838B8389819A815C
:1033400001969A8389838C85282F30E08B819C811C
:10335000821793072CF489819A8180319105CCF2F0
:103360002C960FB6F894DEBF0FBECDBFCF91DF9184
:103370000895DF93CF93CDB7DEB70E940B150E945F
:103380009216FDCF2F923F924F925F926F927F9253
:103390008F929F92AF92BF92CF92DF92EF92FF9265
:1033A0000F931F93CF93DF93CDB7DEB7CA1BDB0B11
:1033B0000FB6F894DEBF0FBECDBF09942A883988B6
:1033C00048885F846E847D848C849B84AA84B984BD
:1033D000C884DF80EE80FD800C811B81AA81B981C9
:1033E000CE0FD11D0FB6F894DEBF0FBECDBFED01DD
:1033F0000895FC0188279927E89421912032E9F368
:10340000293010F02E30C8F32B3241F02D3239F430
:10341000689404C00E94381A820F911D2191205394
:103420002A30C0F31EF4909581959F4F0895FB01BB
:103430009F01E8944230C4F04532B4F44A3029F494
:1034400097FB1EF4909581959F4F642F77270E94DC
:10345000501A805D8A330CF0895D8193CB0100970F
:10346000A1F716F45DE251931082C9010C94401A41
:103470007AE0979F902D879F802D910D11240895BC
:10348000DC01FC01672F71917723E1F7329704C0CB
:103490007C916D9370836291AE17BF07C8F3089556
:1034A000AA1BBB1B51E107C0AA1FBB1FA617B7076A
:1034B00010F0A61BB70B881F991F5A95A9F7809586
:0C34C0009095BC01CD010895F894FFCF59
:1034CC00416468616D204E6F757220456C57666162
:1034DC000073696D706C6543616C63756C61746FBE
:1034EC007200456E74657220596F75720043616C81
:1034FC0063756C6174696F6E204E6F77004C6F6EE4
:10350C0067204578702C206275666620636C726447
:10351C00004F7020696E20696E64783D30000000A9
:08352C00000000000000FF0098
:00000001FF
